S01600004C6564426F756E63696E675F56312E73726563DE
S11300000C9434000C9446000C9446000C94460066
S11300100C9446000C9446000C9446000C94460044
S11300200C9446000C9446000C9446000C94460034
S11300300C9446000C9446000C9448000C94460022
S11300400C9446000C9446000C9446000C94460014
S11300500C9446000C9446000C9446000C94460004
S11300600C9446000C94460011241FBECFEFD8E038
S1130070DEBFCDBF21E0A0E0B1E001C01D92A830F9
S1130080B207E1F70E94C0000C94D8000C94000061
S11300901F920F920FB60F9211242F933F934F93F9
S11300A05F936F937F938F939F93809101019091BE
S11300B002010196909302018093010120910401B1
S11300C03091050182179307E8F110920201109212
S11300D00101809106019091070141E050E0082E52
S11300E002C0440F551F0A94E2F74BB987309105BB
S11300F040F041E040930301409100014F5F409381
S113010000014091000150E04817590718F04FEFE3
S11301104093030140910301042E000C550BBA01D6
S1130120660F771F660F771F640F751F260F371F23
S11301303093050120930401841B950B90930701D0
S1130140809306019F918F917F916F915F914F9161
S11301503F912F910F900FBE0F901F901895EEE6D0
S1130160F0E080818260808384B58C7F826084BD6E
S113017085B5887F836085BD789489EF87BD0895B0
S11301800E94AF008FEF8AB981E08093030110923F
S113019002011092010110920701109206011092BF
S11301A0000180EA90E09093050180930401FFCF61
S10701B0F894FFCFED
S9030000FC
